:020000040800F2
:10000000C006002089010008091300080113000838
:1000100005130008450200081D1300080000000039
:1000200000000000000000000000000011130008A4
:1000300049020008000000000D1300081513000815
:10004000A3010008A3010008A3010008A301000800
:10005000A3010008A3010008A3010008A3010008F0
:10006000A3010008A3010008A3010008A3010008E0
:10007000A3010008A3010008A3010008A3010008D0
:10008000A3010008A3010008A3010008A3010008C0
:10009000A3010008A3010008A3010008A3010008B0
:1000A000A3010008A3010008A3010008A3010008A0
:1000B000A3010008A3010008A3010008A301000890
:1000C000A3010008A3010008A3010008A301000880
:1000D000A3010008A3010008A3010008A301000870
:1000E000A3010008A3010008A301000800F002F822
:1000F00000F03AF80AA090E8000C82448344AAF188
:100100000107DA4501D100F02FF8AFF2090EBAE885
:100110000F0013F0010F18BFFB1A43F0010318473B
:10012000A4130000C4130000103A24BF78C878C19B
:10013000FAD8520724BF30C830C144BF04680C60ED
:10014000704700000023002400250026103A28BF35
:1001500078C1FBD8520728BF30C148BF0B60704739
:100160001FB51FBD10B510BD00F031F81146FFF7E7
:10017000F7FF01F0D5F800F04FF803B4FFF7F2FFF6
:1001800003BC00F057F800000948804709480047C1
:10019000FEE7FEE7FEE7FEE7FEE7FEE7FEE7FEE737
:1001A000FEE7FEE704480549054A064B7047000094
:1001B00019130008ED000008C0000020C006002050
:1001C000C0020020C002002070477047704775468B
:1001D00000F02CF8AE4605006946534620F00700B3
:1001E000854618B020B5FFF7DDFFBDE820404FF091
:1001F00000064FF000074FF000084FF0000BAC4630
:10020000ACE8C009ACE8C009ACE8C009ACE8C0097A
:1002100021F007018D46704710B50446AFF300800A
:100220002046BDE81040FFF7A8BF00000048704717
:100230001000002001491820ABBEFEE72600020096
:1002400070470000FEE7000070470000B0B50446AC
:1002500000F01EF9054640F20000C2F200000078EE
:10026000611C18BF044400BF00F012F9401BA042FB
:10027000FAD3B0BD2DE9F04F82B00E68002E00F029
:10028000038141F20042C4F20102042340F2004E15
:10029000904208BF03234FF6FF7CC4F2010E009387
:1002A00000240123C1F2100C4FF0000A4FF00009A6
:1002B00049E000BF012704F00C030F229A402BEA0B
:1002C000020207FA03F34FEA9A051A4346F825207B
:1002D000D1F804B040F20C455FEACB22DEF80820EA
:1002E00054BF22EA080242EA0802C4F20105CEF82D
:1002F00008202A685FEA8B2354BF22EA080242EAF8
:1003000008022A605FEA8B33DEF8042054BF22EA39
:10031000080242EA08025FEACB33CEF80420DEF896
:1003200000204FF0010354BF22EA080242EA08020B
:10033000CEF800200E680AF1010A36FA0AF204F13A
:10034000040400F0A18003FA0AF816EA080FF1D0BD
:100350004E68664512DC122E56D8DFE806F0350BE3
:100360004549555555555555555555555555554D61
:10037000510000BFD1F80C9046E000BF4FF6FF726D
:10038000C1F2210296420FDC0022C1F21102964214
:100390001AD00022C1F21202964215D00022C1F2F8
:1003A0002102964210D02FE00022C1F22202964292
:1003B0000AD00022C1F23102964205D00022C1F2D9
:1003C0003202964220D100BF8A684AB1012A14BF86
:1003D000C0F81480C0F810804FF0080914E000BF86
:1003E0004FF0040910E000BFCA6802F108090BE0F1
:1003F0004FF0000908E000BFCA6802F1040903E0F9
:10040000CA6802F10C0900BF22460646BAF1080F7D
:1004100024BF203A043637680F25954027EA0505A2
:1004200009FA02F22A433260CA79D2067FF582AF16
:1004300041F21803C4F202031A68AEF57E7642F068
:1004400001021A601A6802F001020192019A2AF070
:10045000030256F802B040F60002C4F201029042D4
:1004600010D040F60042C4F2010290423FF422AFA5
:1004700041F20002C4F20102009F904208BF02272D
:1004800019E700BF002716E702B0BDE8F08F0000B3
:1004900040F2B800C2F200000068704740F200006D
:1004A00040F2B801C2F20000C2F2000100780A680E
:1004B000104408607047000080B542F20000C4F2AA
:1004C0000200016841F010010160032000F07AF899
:1004D0000F2000F005F800F027F8002080BD000094
:1004E00070B540F20006C2F2000640F20801327810
:1004F000C2F200014FF47A730968B3FBF2F20446CA
:10050000B1FBF2F1084600F027FB0F2C4FF001057C
:1005100008D838B94FF0FF3021460022002500F0FE
:1005200025F87460284670BD82B041F21800C4F20C
:1005300002000168022241F001010160016801F03E
:10054000010101910199416841F080514160406889
:1005500000F08050009000980420C4F2010001686F
:1005600062F31A61016002B07047000010B54EF6E8
:100570000C5CCEF2000CDCF80030C3F3022E8EF0DF
:100580000704042C28BF0424BEF103034FF0FF3EF0
:100590000EFA04F438BF0023A14399400EFA03F386
:1005A0009A43114300F00F0200F160430901043A3D
:1005B00003F564436244002848BF02F10C0319703C
:1005C00010BD00004EF60C51CEF200010A684FF645
:1005D000FF031A4060F30A2242F0806040F0FD7091
:1005E000086070472DE9F04381B0002800F0858055
:1005F00042F20008C4F202080446D8F800000D4692
:1006000000F0070088420CD2D8F8000020F0070064
:100610002843C8F80000D8F8000000F00700A842FE
:100620006BD1206841F204098107C4F2020917D591
:10063000410705D5D9F8001041F4E061C9F8001070
:10064000010705D5D9F8001041F46051C9F8001030
:10065000D9F80010A26821F0F0011143C9F8001088
:10066000C00741D1D8F8000000F00700A8420CD91B
:10067000D8F8000020F007002843C8F80000D8F898
:10068000000000F00700A84237D12068410707D5D5
:10069000D9F80010E26821F4E0611143C9F80010B4
:1006A000000708D5D9F80000216920F4605040EA1D
:1006B000C100C9F80000D9F8002002F00C00082899
:1006C00041F20020C0F27A0050D141F2B443C2F3AB
:1006D0008341C0F60003595CD2033BD440F60010BE
:1006E000C0F23D00484341E0606802280AD001287A
:1006F0002AD159F8041C890308D4012001B0BDE8AF
:10070000F08300BF59F8041C8901F6D5D9F8001010
:1007100021F003010843C9F80000FFF7B9FE0646BF
:1007200041F28837D9F80000616800F00C00B0EBA6
:10073000810F97D0FFF7ACFE801BB842F2D903209F
:1007400001B0BDE8F08300BF59F8041C8907D4D577
:10075000DCE700BFD9F8002041F2B243C2F34042C7
:10076000C0F600039A5C4843B0FBF2F0D9F80010E1
:1007700041F2A242C1F30311C0F60002515C40F203
:10078000080220FA01F140F20400C2F20000006801
:10079000C2F200021160FFF7A3FE002001B0BDE825
:1007A000F08300002DE9F04182B0002868D00446B3
:1007B000007841F20006C007C4F2020625D0706836
:1007C00000F00C0004281BD0706800F00C00082812
:1007D00002D17068C00313D46068002800F06881FB
:1007E000B0F5A02F00F07C81B0F5803F00F07C8157
:1007F000306820F480303060306820F4802076E16A
:100800003068800301D56068D0B32078800718D5A0
:10081000706810F00C0F07D0706800F00C0008280A
:100820006ED17068C0036BD43068800702D5206930
:10083000012825D13068616920F0F80040EAC10044
:100840003060207800071FD42078400732D4E56953
:1008500095B1706800F00C00082840F08F80012DE1
:100860000ED07068216A00F480328A4208D1616A31
:1008700000F47010884203D1002002B0BDE8F0817E
:10088000012002B0BDE8F081A069002862D00020FC
:10089000C4F242200121C0F88014FFF7F9FD05469B
:1008A000706A800700F18C80FFF7F2FD401B022880
:1008B000F6D92AE1F06910F0805808D1F06940F0CB
:1008C0008050F061F06900F080500090009847F28D
:1008D0000007C4F200073868C00529D4386840F41E
:1008E00080703860FFF7D4FD054600BF3868C0054A
:1008F0001ED4FFF7CDFD401B6428F7D905E100BFEA
:100900002069002840F20000C4F2422000F08280FA
:1009100001210160FFF7BCFD054600BF306880077C
:100920003FF588AFFFF7B4FD401B0228F6D9ECE095
:10093000E068002800F08080052800F097800128FA
:1009400000F09880306A20F001003062306A20F0B8
:10095000040092E00020C4F242200021C0F880147C
:10096000FFF796FD054600BF706A80077FF56CAF04
:10097000FFF78EFD401B0228F6D9C6E00027C4F21F
:10098000422700203866FFF783FD022D05460BD174
:100990003068800140F1BE80FFF77AFD401B0228DD
:1009A0004FF00300F4D968E7306880017FF564AF49
:1009B000FFF76EFD401B02284FF00300F4D95CE7FF
:1009C00040F20800C2F20000006844F6D351C1F2C0
:1009D0006201A0FB0101480A019000BF00BF01981D
:1009E000411E002801913FF42FAF00BF0198411E26
:1009F000002801913FF428AF00BF0198411E002854
:100A000001913FF421AF00BF0198411E00280191E0
:100A1000E4D119E700210160FFF73AFD054600BF68
:100A2000306880077FF50DAFFFF732FD401B0228CD
:100A30004FF00300F4D920E7306A20F00100306263
:100A4000306A20F004003062FFF722FD054641F2D3
:100A5000883700BF306A800720D5FFF719FD401B9B
:100A6000B8424FF00300F5D907E700BF306A40F005
:100A700004003062306A40F001003062FFF708FD88
:100A8000054641F2883700BF306A800706D4FFF779
:100A9000FFFC401BB842F7D937E000BFB8F1000FA8
:100AA0007FF4D5AEF06920F08050F061CFE600BF52
:100AB000306820F480303060306820F4802030606E
:100AC000FFF7E6FC054600BF306880037FF59DAE6A
:100AD000FFF7DEFC401B64284FF00300F4D9CCE69E
:100AE000306840F480203060306840F480303060FE
:100AF000FFF7CEFC054600BF306880033FF585AEAA
:100B0000FFF7C6FC401B6428F6D9032002B0BDE8FD
:100B1000F08100BF206AB0F5803F05D17168A268FE
:100B200021F40031114371607168626A21F474111B
:100B300011430843706001203866FFF7A9FC0446A2
:100B4000306880013FF598AEFFF7A2FC001B022839
:100B50004FF00300F4D990E6411E0020B0EB116F76
:100B60001CBF012070474EF21002CEF2000251600D
:100B70004EF62351CEF20001F0230B700721906056
:100B80001160704710B590F83C20012A4FF0020226
:100B900033D080F83D200268D2F804E0D2F808C0D3
:100BA0000C682EF07003234340F2FF74C4F200047B
:100BB000A24253600ADCB2F1804F13D040F20043EE
:100BC000C4F200039A420DD011E000BF42F6004388
:100BD000C4F201039A4205D040F60003C4F20003B8
:100BE0009A4204D149682CF0800319439160012195
:100BF000002280F83D1080F83C20104610BD000017
:100C0000002804BF0120704710B5044690F83D004D
:100C100028B9002084F83C00204600F06FF802203C
:100C200084F83D00206840F2FF730268C4F20003BC
:100C300042F6004C9842C4F2010C15DCB0F1804F32
:100C40001AD040F20041C4F20001884214D0984208
:100C500018DCB0F1804F1DD040F20041C4F2000119
:100C6000884217D01AE000BF604505D040F6000169
:100C7000C4F200018842EAD1A16822F070020A435E
:100C80009842E6DD604505D040F60001C4F200015F
:100C9000884203D1216922F440720A43A36922F0F9
:100CA0008001D4F804E0E268194360450160C26243
:100CB000C0F828E002D16169CCF83010012141610F
:100CC0000269D20703D0026922F00102026100200A
:100CD00084F8461084F83E1084F83F1084F84010E1
:100CE00084F8411084F8421084F8431084F84410CA
:100CF00084F8451084F83D1010BD000081B00068F4
:100D0000B0F1804F02D001B0704700BF41F21C002B
:100D1000C4F20200016841F001010160006800F0C6
:100D200001000090009801B07047000080B590F875
:100D30003C20012A4FF0020200F0C28080F83D20E2
:100D4000D0F800C04FF67772DCF8083023EA0202D0
:100D5000CCF808200B684F2B28DC1F2B44DD202B00
:100D600045D0302B43D0402B40F0AC80D1F804E08C
:100D7000C968DCF82030DCF8202022F00102CCF831
:100D80002020DCF8182022F0F00242EA011123F0C2
:100D90000A0242EA0E02CCF81810CCF82020DCF847
:100DA000081041F0470121F0300180E06F2B27DD72
:100DB000B3F5005F48D0B3F5805F7AD0702B40F078
:100DC0008180D1E901E3C968DCF8082043EA0E0319
:100DD00022F47F4243EA01211143CCF80810DCF8E9
:100DE000081041F0770162E00BB1102B6AD1DCF8FA
:100DF000081021F07001194341F0070157E000BFCE
:100E0000502B35D0602B5DD1D1F804E0C968DCF8F7
:100E10002030DCF8202022F01002CCF82020DCF872
:100E2000182022F4704242EA013123F0A00242EA83
:100E30000E12CCF81810CCF82020DCF8081041F085
:100E4000670121F0100132E0D1E901E3C968DCF863
:100E5000082043EA0E0322F47F4243EA01211143B2
:100E6000CCF80810DCF8081041F480411FE000BF06
:100E7000D1F804E0C968DCF82030DCF8202022F04A
:100E80000102CCF82020DCF8182022F0F00242EA1F
:100E9000011123F00A0242EA0E02CCF81810CCF835
:100EA0002020DCF8081041F0570121F02001CCF897
:100EB00008100022012180F83D10002180F83C102C
:100EC000104680BD0122F5E780B586B0006800219C
:100ED000B0F1804F049101D006B080BD41F21800FE
:100EE000C4F20200016841F004010160006802A937
:100EF00000F004000190019801200290022003906C
:100F0000059040F60000C4F20100FFF7B3F906B007
:100F100080BD00002DE9F04390F83C30012B04BF68
:100F20000220BDE8F0834FEAB202032A3CD8DFE892
:100F300002F0034381BD00BF036842F600461D6A0C
:100F40001A6AC4F2010622F001021A621A465C68AB
:100F500052F818CFB3428E68D1F800E025F00205B0
:100F600045EA06050CD1CE68D1E9057824F4407431
:100F700025F00C0526F004063C43354344EA0804FA
:100F80002CF0730747EA0E075C609F614F680969A0
:100F90005F631D629F6947F008079F619F6927F0A3
:100FA00004079F61B2E000BF0121002280F83C20CD
:100FB0000846BDE8F08300BF036842F600461D6A9C
:100FC0001A6AC4F2010622F010021A621A46D3F815
:100FD00004C052F8184FB3428E68D1F800E025F0F3
:100FE000200545EA061510D1CE68D1E9058725F020
:100FF000C0096FF0400505EA06152CF4406647EA83
:10100000080745EA090546EA870C24F4E64444EA61
:101010000E27C3F804C09F614F6809699F631D6272
:101020009F6947F400679F619F6927F480679F610C
:101030006BE000BF036842F600461D6A1A6AC4F2FC
:10104000010622F480721A621A46D3F804C052F8DC
:101050001CEFB3428E680C6825F4007545EA06253E
:1010600011D1CE68D1E9058725F44069360240F2F6
:10107000FF4526EA05052CF4405647EA080745EAED
:10108000090546EA071C2EF073072743C3F804C07E
:10109000DF614F680969DF631D62DF6947F0080798
:1010A000DF61DF6927F00407DF612FE0036842F6A4
:1010B0000047D3F820C01A6AC4F2010722F4805214
:1010C0001A621A465C6852F81C5FD1F800E08E681C
:1010D000BB4204D14F6924F4804444EA87142CF4C1
:1010E000005747EA063725F4E64646EA0E265C60D6
:1010F000DE614E6809691E641F62DF6947F400679C
:10110000DF61DF6927F48067DF6109021368194333
:1011100011600021002280F83C200846BDE8F083E1
:10112000002804BF0120704710B5044690F83D0028
:1011300028B9002084F83C00204600F06FF8022017
:1011400084F83D00206840F2FF730268C4F2000397
:1011500042F6004C9842C4F2010C15DCB0F1804F0D
:101160001AD040F20041C4F20001884214D09842E3
:1011700018DCB0F1804F1DD040F20041C4F20001F4
:10118000884217D01AE000BF604505D040F6000144
:10119000C4F200018842EAD1A16822F070020A4339
:1011A0009842E6DD604505D040F60001C4F200013A
:1011B000884203D1216922F440720A43A36922F0D4
:1011C0008001D4F804E0E268194360450160C2621E
:1011D000C0F828E002D16169CCF8301001214161EA
:1011E0000269D20703D0026922F0010202610020E5
:1011F00084F8461084F83E1084F83F1084F84010BC
:1012000084F8411084F8421084F8431084F84410A4
:1012100084F8451084F83D1010BD000070470000B0
:1012200041B1082910D0042914BF00F1410200F196
:101230003F020BE090F83E20012A1CBF01207047BE
:10124000022280F83E2013E000F140021278012AC9
:101250001CBF012070470222082907D0042914BFAF
:1012600080F8412080F83F2002E000BF80F8402055
:10127000006801F01F010122036A8A4023EA02018B
:101280000162036A42F64441C4F201011A43A1F12A
:101290004403984202620FD040F2FF71C4F2000191
:1012A000884213DCB0F1804F1CD040F20041C4F200
:1012B0000001884216D01CE00A6842F400420A602D
:1012C00040F2FF71C4F200018842EBDD42F60041BA
:1012D000C4F20101884205D040F60001C4F20001C9
:1012E000884206D1816801F00701062904BF002069
:1012F0007047016841F00101016000207047000063
:10130000FEE70000FEE70000FEE700007047000077
:1013100070470000FFF7C2B870470000FEE700000A
:1013200092B0FFF7C9F800240120CDE90B44CDE9C4
:1013300009440A9010200B904FF4601002250F9082
:1013400006A8CDE907440695CDE90D54FFF72AFA22
:1013500020B1EFF3108072B6FEE700BF0F20CDE999
:1013600001054FF48060CDE9040401A80221039433
:10137000FFF738F920B1EFF3108072B6FEE700BF37
:1013800041F21800C4F2020001684FF0804241F0BF
:101390002001016001683F2301F0200106910699B8
:1013A000016844F61F6641F00401016000680021F5
:1013B00000F004000690069840F27000C2F20000AF
:1013C0000491CDE90211CDE91011CDE90B11CDE960
:1013D0000911C0E90023C0E9021601618161FFF72C
:1013E0000FFC28B1EFF3108072B600BFFEE700BF1C
:1013F0004FF48050019040F27000C2F2000001A949
:10140000FFF794FC20B1EFF3108072B6FEE700BF47
:1014100040F27000C2F20000FFF782FE20B1EFF34D
:10142000108072B6FEE700BF40F27000C2F200000A
:1014300010A9FFF7A7FB28B1EFF3108072B600BF29
:10144000FEE700BF602040F2700406900020C2F268
:101450000004CDE907000A9006A920460022FFF704
:1014600059FD28B1EFF3108072B600BFFEE700BF50
:101470002046FFF729FD20460021FFF7D1FE4FF45B
:101480007A754FF4FA6600BF206845634FF47A70AE
:10149000FEF7DCFE206846634FF47A70FEF7D6FE56
:1014A000F2E700000000000000000102030406074C
:1014B0000809010202030405060708090A0B0C0DBE
:1014C0000E0F1010E81400080000002010000000AB
:1014D00028010008F814000810000020B0060000E1
:1014E000440100080000000001000000100000009E
:0814F00000127A000000000068
:04000005080000ED02
:00000001FF
